{
  "_format": "hh-sol-artifact-1",
  "contractName": "CodeHashGetter",
  "sourceName": "contracts/CodeHashGetter.sol",
  "abi": [
    {
      "inputs": [
        {
          "internalType": "address[]",
          "name": "addresses",
          "type": "address[]"
        }
      ],
      "stateMutability": "nonpayable",
      "type": "constructor"
    },
    {
      "inputs": [
        {
          "internalType": "bytes32",
          "name": "hash",
          "type": "bytes32"
        }
      ],
      "name": "CodeHashesResult",
      "type": "error"
    },
    {
      "inputs": [
        {
          "internalType": "address[]",
          "name": "addresses",
          "type": "address[]"
        }
      ],
      "name": "getCodeHashes",
      "outputs": [
        {
          "internalType": "bytes32",
          "name": "",
          "type": "bytes32"
        }
      ],
      "stateMutability": "view",
      "type": "function"
    }
  ],
  "bytecode": "0x608060405234801561001057600080fd5b506040516102b03803806102b083398101604081905261002f9161016a565b6100388161005d565b60405163091cd00560e01b815260040161005491815260200190565b60405180910390fd5b60008082516001600160401b0381111561007957610079610138565b6040519080825280602002602001820160405280156100a2578160200160208202803683370190505b50905060005b8351811015610104578381815181106100c3576100c361022e565b60200260200101516001600160a01b03163f8282815181106100e7576100e761022e565b6020908102919091010152806100fc81610244565b9150506100a8565b50600081604051602001610118919061026b565b60408051601f198184030181529190528051602090910120949350505050565b634e487b7160e01b600052604160045260246000fd5b80516001600160a01b038116811461016557600080fd5b919050565b6000602080838503121561017d57600080fd5b82516001600160401b038082111561019457600080fd5b818501915085601f8301126101a857600080fd5b8151818111156101ba576101ba610138565b8060051b604051601f19603f830116810181811085821117156101df576101df610138565b6040529182528482019250838101850191888311156101fd57600080fd5b938501935b82851015610222576102138561014e565b84529385019392850192610202565b98975050505050505050565b634e487b7160e01b600052603260045260246000fd5b60006001820161026457634e487b7160e01b600052601160045260246000fd5b5060010190565b6020808252825182820181905260009190848201906040850190845b818110156102a357835183529284019291840191600101610287565b5090969550505050505056fe",
  "deployedBytecode": "0x608060405234801561001057600080fd5b506004361061002b5760003560e01c80637b34b62114610030575b600080fd5b61004361003e366004610163565b610055565b60405190815260200160405180910390f35b600080825167ffffffffffffffff81111561007257610072610131565b60405190808252806020026020018201604052801561009b578160200160208202803683370190505b50905060005b83518110156100fd578381815181106100bc576100bc610228565b60200260200101516001600160a01b03163f8282815181106100e0576100e0610228565b6020908102919091010152806100f58161023e565b9150506100a1565b506000816040516020016101119190610265565b60408051601f198184030181529190528051602090910120949350505050565b634e487b7160e01b600052604160045260246000fd5b80356001600160a01b038116811461015e57600080fd5b919050565b6000602080838503121561017657600080fd5b823567ffffffffffffffff8082111561018e57600080fd5b818501915085601f8301126101a257600080fd5b8135818111156101b4576101b4610131565b8060051b604051601f19603f830116810181811085821117156101d9576101d9610131565b6040529182528482019250838101850191888311156101f757600080fd5b938501935b8285101561021c5761020d85610147565b845293850193928501926101fc565b98975050505050505050565b634e487b7160e01b600052603260045260246000fd5b60006001820161025e57634e487b7160e01b600052601160045260246000fd5b5060010190565b6020808252825182820181905260009190848201906040850190845b8181101561029d57835183529284019291840191600101610281565b5090969550505050505056fea2646970667358221220607a8e4c34fd65d9ba685c4476e9540c8c7633cee2b1d70fee3f5d5830698e7e64736f6c634300080f0033",
  "linkReferences": {},
  "deployedLinkReferences": {}
}