{
  "_format": "hh-sol-artifact-1",
  "contractName": "GetUserOpHashes",
  "sourceName": "contracts/BundlerHelper.sol",
  "abi": [
    {
      "inputs": [
        {
          "internalType": "contract IEntryPoint",
          "name": "entryPoint",
          "type": "address"
        },
        {
          "components": [
            {
              "internalType": "address",
              "name": "sender",
              "type": "address"
            },
            {
              "internalType": "uint256",
              "name": "nonce",
              "type": "uint256"
            },
            {
              "internalType": "bytes",
              "name": "initCode",
              "type": "bytes"
            },
            {
              "internalType": "bytes",
              "name": "callData",
              "type": "bytes"
            },
            {
              "internalType": "uint256",
              "name": "callGasLimit",
              "type": "uint256"
            },
            {
              "internalType": "uint256",
              "name": "verificationGasLimit",
              "type": "uint256"
            },
            {
              "internalType": "uint256",
              "name": "preVerificationGas",
              "type": "uint256"
            },
            {
              "internalType": "uint256",
              "name": "maxFeePerGas",
              "type": "uint256"
            },
            {
              "internalType": "uint256",
              "name": "maxPriorityFeePerGas",
              "type": "uint256"
            },
            {
              "internalType": "bytes",
              "name": "paymasterAndData",
              "type": "bytes"
            },
            {
              "internalType": "bytes",
              "name": "signature",
              "type": "bytes"
            }
          ],
          "internalType": "struct UserOperation[]",
          "name": "userOps",
          "type": "tuple[]"
        }
      ],
      "stateMutability": "nonpayable",
      "type": "constructor"
    },
    {
      "inputs": [
        {
          "internalType": "bytes32[]",
          "name": "userOpHashes",
          "type": "bytes32[]"
        }
      ],
      "name": "UserOpHashesResult",
      "type": "error"
    },
    {
      "inputs": [
        {
          "internalType": "contract IEntryPoint",
          "name": "entryPoint",
          "type": "address"
        },
        {
          "components": [
            {
              "internalType": "address",
              "name": "sender",
              "type": "address"
            },
            {
              "internalType": "uint256",
              "name": "nonce",
              "type": "uint256"
            },
            {
              "internalType": "bytes",
              "name": "initCode",
              "type": "bytes"
            },
            {
              "internalType": "bytes",
              "name": "callData",
              "type": "bytes"
            },
            {
              "internalType": "uint256",
              "name": "callGasLimit",
              "type": "uint256"
            },
            {
              "internalType": "uint256",
              "name": "verificationGasLimit",
              "type": "uint256"
            },
            {
              "internalType": "uint256",
              "name": "preVerificationGas",
              "type": "uint256"
            },
            {
              "internalType": "uint256",
              "name": "maxFeePerGas",
              "type": "uint256"
            },
            {
              "internalType": "uint256",
              "name": "maxPriorityFeePerGas",
              "type": "uint256"
            },
            {
              "internalType": "bytes",
              "name": "paymasterAndData",
              "type": "bytes"
            },
            {
              "internalType": "bytes",
              "name": "signature",
              "type": "bytes"
            }
          ],
          "internalType": "struct UserOperation[]",
          "name": "userOps",
          "type": "tuple[]"
        }
      ],
      "name": "getUserOpHashes",
      "outputs": [
        {
          "internalType": "bytes32[]",
          "name": "ret",
          "type": "bytes32[]"
        }
      ],
      "stateMutability": "view",
      "type": "function"
    }
  ],
  "bytecode": "0x60806040523480156200001157600080fd5b5060405162000675380380620006758339810160408190526200003491620002cd565b62000040828262000064565b604051628f37ad60e51b81526004016200005b9190620004be565b60405180910390fd5b606081516001600160401b038111156200008257620000826200019f565b604051908082528060200260200182016040528015620000ac578160200160208202803683370190505b50905060005b82518110156200017f57836001600160a01b031663a6193531848381518110620000e057620000e062000504565b60200260200101516040518263ffffffff1660e01b815260040162000106919062000548565b602060405180830381865afa15801562000124573d6000803e3d6000fd5b505050506040513d601f19601f820116820180604052508101906200014a919062000632565b8282815181106200015f576200015f62000504565b60209081029190910101528062000176816200064c565b915050620000b2565b5092915050565b6001600160a01b03811681146200019c57600080fd5b50565b634e487b7160e01b600052604160045260246000fd5b60405161016081016001600160401b0381118282101715620001db57620001db6200019f565b60405290565b604051601f8201601f191681016001600160401b03811182821017156200020c576200020c6200019f565b604052919050565b8051620002218162000186565b919050565b60005b838110156200024357818101518382015260200162000229565b8381111562000253576000848401525b50505050565b600082601f8301126200026b57600080fd5b81516001600160401b038111156200028757620002876200019f565b6200029c601f8201601f1916602001620001e1565b818152846020838601011115620002b257600080fd5b620002c582602083016020870162000226565b949350505050565b60008060408385031215620002e157600080fd5b8251620002ee8162000186565b602084810151919350906001600160401b03808211156200030e57600080fd5b818601915086601f8301126200032357600080fd5b8151818111156200033857620003386200019f565b8060051b62000349858201620001e1565b918252838101850191858101908a8411156200036457600080fd5b86860192505b83831015620004ad578251858111156200038357600080fd5b8601610160818d03601f190112156200039b57600080fd5b620003a5620001b5565b620003b289830162000214565b8152604082015189820152606082015187811115620003d057600080fd5b620003e08e8b8386010162000259565b604083015250608082015187811115620003f957600080fd5b620004098e8b8386010162000259565b60608301525060a0820151608082015260c082015160a082015260e082015160c082015261010082015160e082015261012082015161010082015261014080830151888111156200045957600080fd5b620004698f8c8387010162000259565b61012084015250610160830151888111156200048457600080fd5b620004948f8c8387010162000259565b918301919091525083525091860191908601906200036a565b809750505050505050509250929050565b6020808252825182820181905260009190848201906040850190845b81811015620004f857835183529284019291840191600101620004da565b50909695505050505050565b634e487b7160e01b600052603260045260246000fd5b600081518084526200053481602086016020860162000226565b601f01601f19169290920160200192915050565b60208152620005636020820183516001600160a01b03169052565b60208201516040820152600060408301516101608060608501526200058d6101808501836200051a565b91506060850151601f1980868503016080870152620005ad84836200051a565b9350608087015160a087015260a087015160c087015260c087015160e087015260e087015191506101008281880152808801519250506101208281880152808801519250506101408187860301818801526200060a85846200051a565b9088015187820390920184880152935090506200062883826200051a565b9695505050505050565b6000602082840312156200064557600080fd5b5051919050565b6000600182016200066d57634e487b7160e01b600052601160045260246000fd5b506001019056fe",
  "deployedBytecode": "0x608060405234801561001057600080fd5b506004361061002b5760003560e01c80633024e00c14610030575b600080fd5b61004361003e366004610272565b610059565b6040516100509190610443565b60405180910390f35b6060815167ffffffffffffffff81111561007557610075610181565b60405190808252806020026020018201604052801561009e578160200160208202803683370190505b50905060005b825181101561016257836001600160a01b031663a61935318483815181106100ce576100ce610487565b60200260200101516040518263ffffffff1660e01b81526004016100f291906104ea565b602060405180830381865afa15801561010f573d6000803e3d6000fd5b505050506040513d601f19601f8201168201806040525081019061013391906105cb565b82828151811061014557610145610487565b60209081029190910101528061015a816105e4565b9150506100a4565b5092915050565b6001600160a01b038116811461017e57600080fd5b50565b634e487b7160e01b600052604160045260246000fd5b604051610160810167ffffffffffffffff811182821017156101bb576101bb610181565b60405290565b604051601f8201601f1916810167ffffffffffffffff811182821017156101ea576101ea610181565b604052919050565b80356101fd81610169565b919050565b600082601f83011261021357600080fd5b813567ffffffffffffffff81111561022d5761022d610181565b610240601f8201601f19166020016101c1565b81815284602083860101111561025557600080fd5b816020850160208301376000918101602001919091529392505050565b6000806040838503121561028557600080fd5b823561029081610169565b915060208381013567ffffffffffffffff808211156102ae57600080fd5b818601915086601f8301126102c257600080fd5b8135818111156102d4576102d4610181565b8060051b6102e38582016101c1565b918252838101850191858101908a8411156102fd57600080fd5b86860192505b838310156104325782358581111561031a57600080fd5b8601610160818d03601f1901121561033157600080fd5b610339610197565b6103448983016101f2565b815260408201358982015260608201358781111561036157600080fd5b61036f8e8b83860101610202565b60408301525060808201358781111561038757600080fd5b6103958e8b83860101610202565b60608301525060a0820135608082015260c082013560a082015260e082013560c082015261010082013560e082015261012082013561010082015261014080830135888111156103e457600080fd5b6103f28f8c83870101610202565b610120840152506101608301358881111561040c57600080fd5b61041a8f8c83870101610202565b91830191909152508352509186019190860190610303565b809750505050505050509250929050565b6020808252825182820181905260009190848201906040850190845b8181101561047b5783518352928401929184019160010161045f565b50909695505050505050565b634e487b7160e01b600052603260045260246000fd5b6000815180845260005b818110156104c3576020818501810151868301820152016104a7565b818111156104d5576000602083870101525b50601f01601f19169290920160200192915050565b602081526105046020820183516001600160a01b03169052565b602082015160408201526000604083015161016080606085015261052c61018085018361049d565b91506060850151601f198086850301608087015261054a848361049d565b9350608087015160a087015260a087015160c087015260c087015160e087015260e087015191506101008281880152808801519250506101208281880152808801519250506101408187860301818801526105a5858461049d565b9088015187820390920184880152935090506105c1838261049d565b9695505050505050565b6000602082840312156105dd57600080fd5b5051919050565b60006001820161060457634e487b7160e01b600052601160045260246000fd5b506001019056fea2646970667358221220665fc345819f29803c6a8c7169bceb4ca5ee371e8e180994e634a3e77020292e64736f6c634300080f0033",
  "linkReferences": {},
  "deployedLinkReferences": {}
}